:020000040000FA
:0400000084EF00F099
:100008005682D9CF05F0DACF06F02ED0AECF55F014
:10001800030E00017025016E000E7121026E000EA4
:100028007221036E000E7321046E4F50015C505014
:100038000258515003585250045801E28C6B320E4A
:100048008C1901E18C07640E8C25D96EDA6A010ED1
:10005800DA2255C0DFFF8C2B4FC070F050C071F012
:1000680051C072F052C073F09EBAD0D79EB89DA806
:1000780012D0000E5324D96EDA6A010EDA22DF504C
:10008800AD6E532A00018A51531803E0320E5318FB
:1000980002E19D98536A9EA22DD04F2A000E50224D
:1000A80051225222F40E00016C25016E010E6D21C1
:1000B800026E000E6E21036E000E6F21046E4F500B
:1000C800015C50500258515003585250045801E2F4
:1000D8008B9A53500EE1ACA20CD054500AE08A9C83
:1000E800546AE85106E09D9A400EAF6E030EB06E5A
:1000F8009D8A9E9206C0DAFF05C0D9FF569211006C
:10010800F7EF07F00001DB6BDC6B1EEC08F04FC06B
:10011800E9F050C0EAF051C0EBF052C0ECF0010E2B
:10012800E86FABA20ED0AB98AB88880E4F24E96F6E
:10013800130E5020EA6F000E5120EB6F000E522074
:10014800EC6F060E8C65E4D0030E7025D76F000E99
:100158007121D86F000E7221D96F000E7321DA6FEA
:100168004F50D75D5050D8595150D9595250DA593B
:1001780001E3CED0320E076E010E086E640E096ED2
:10018800010E0A6E8CC00BF00C6A43EC08F08CC0B0
:100198008BF08C6B320E076E010E086E8BC009F067
:1001A800C1EC07F007C0DDF008C0DEF00A0E01015F
:1001B800321901E0ADD0040E331901E0A9D0140EB4
:1001C800371901E0A5D00001DD51DE1101E0A0D012
:1001D8004FC0E9F050C0EAF051C0EBF052C0ECF06B
:1001E800E86B0A0E8D6F040E8E6F280E8F6F906B62
:1001F8000A0E916F926B030E936F070EE16FE06B1F
:10020800E1518D0FD96EDA6ADF6AE12BE02B170E08
:10021800E065F6D7E06BE051040DF350BF0FD96EDF
:10022800DA6ADECF07F0DECF08F0DECF09F0DECFE6
:100238000AF09A0E0B6E990E0C6E0D6E3E0E0E6E37
:100248003FEC02F0E051040DF350BF0FD96EDA6AAB
:1002580007C0DEFF08C0DEFF09C0DEFF0AC0DEFF00
:10026800E051040DF350BF0FDF6FDF51D96EDA6A2A
:10027800030ED926E1518D0FE16EE26ADFCFE7FF69
:10028800E12BDF51D96EDA6A020ED926E1518D0FC2
:10029800E16EE26ADFCFE7FFE12BDF51D96EDA6A60
:1002A800D92AE1518D0FE16EE26ADFCFE7FFE12B3A
:1002B800DF51D96EDA6AE1518D0FE16EE26ADFCF64
:1002C800E7FFE12BE02B020EE065A5D78D0E076E48
:1002D800086AE1C009F0C1EC07F007C0DDF008C00A
:1002E800DEF0E1518D0FD96EDA6ADDC0DFFFE12B58
:1002F800E1518D0FD96EDA6ADEC0DFFFE12B8D0E7A
:10030800076EE1C008F0096A1BEC07F00001DC6B1E
:10031800840E0001E925D76F030EEA21D86F000E7D
:10032800EB21D96F000EEC21DA6F4F50D75D50509A
:10033800D8595150D9595250DA5901E3F2D64FC021
:10034800E9F050C0EAF051C0EBF052C0ECF0DC51DB
:1003580024E1000E91EC03F04BC0BFF04CC0C0F09C
:100368004DC0C1F04EC0C2F0010E91EC03F04BC07D
:10037800C3F04CC0C4F04DC0C5F04EC0C6F0020E6C
:1003880091EC03F04BC0C7F04CC0C8F04DC0C9F0A9
:100398004EC0CAF0010E0001DC6FE85101E1C1D680
:1003A800DB2B010EDB65BDD6DB6B8D69030E8E6F13
:1003B800500E8F6F010E906F916F030E926F060EA5
:1003C800E16FE06BE051040DF350BF0FDF6FDF51B9
:1003D800D96EDA6AE1518D0FE16EE26ADFCFE7FF8D
:1003E800E12BDF51D96EDA6AD92AE1518D0FE16E1E
:1003F800E26ADFCFE7FFE12BDF51D96EDA6A020E3E
:10040800D926E1518D0FE16EE26ADFCFE7FFE12BDC
:10041800DF51D96EDA6A030ED926E1518D0FE16EEC
:10042800E26ADFCFE7FFE12BE02B020EE065CAD7D7
:100438008D0E076EE1C008F08BEC07F007C0DDF009
:1004480008C0DEF0E1518D0FD96EDA6ADDC0DFFF3A
:10045800E12BE1518D0FD96EDA6ADEC0DFFFE12BA7
:100468008D0E076EE1C008F0010E096E1BEC07F057
:100478000001DC6B56D60A50800B136E0A500A2412
:10048800196E09BE1980195008E0192804E1076A95
:10049800086A096A0A6A098E04D0076A086A096A3A
:1004A8000A6A0E50800B131A0E500E24146E0DBEDD
:1004B8001480145008E0142804E10B6A0C6A0D6AD1
:1004C8000E6A0D8E04D00B6A0C6A0D6A0E6A1450FF
:1004D80002E0195005E1076A086A096A0A6A120007
:1004E8000D500702F3CF1EF0F4CF1FF01E50156E0B
:1004F800166A176A186A1F501A6E1B6A1C6A1D6AE8
:100508000C500802F3CF1EF0F4CF1FF01E50152632
:10051800000E1622172218221F501A26000E1B2220
:100528001C221D220B500902F3CF1EF0F4CF1FF03E
:100538001E501526000E1622172218221F501A26A2
:10054800000E1B221C221D2217C018F016C017F01F
:1005580015C016F0156A0B500802F3CF1EF0F4CF41
:100568001FF01E5015261F501622000E17221822A3
:100578000C500702F3CF1EF0F4CF1FF01E501526C3
:100588001F501622000E1722182217C018F016C086
:1005980017F015C016F0156A0B500702F3CF1EF0BE
:1005A800F4CF1FF01E5015261F501622000E1722DA
:1005B80018220D500802F3CF1EF0F4CF1FF01E5082
:1005C8001A261F501B22000E1C221D220C50090245
:1005D800F3CF1EF0F4CF1FF01E501A261F501B2217
:1005E800000E1C221D220D500902F3CF1EF0F4CF7D
:1005F8001FF01E500F6E1F50106E116A126A11C044
:1006080012F010C011F00FC010F00F6A0F501A2628
:1006180010501B2211501C2212501D2218501A264D
:10062800000E1B221C221D2217C018F016C017F03E
:1006380015C016F0156A145019C00FF0106A0F266D
:10064800000E1022820E0F241E6EFF0E10201F6E49
:100658000FD0D8901A361B361C361D3618BE1A8095
:10066800D89015361636173618361E06D8A01F0627
:100678001CAEEFD7146A18AE13D015500F6E165073
:10068800106E1750116E7F0E1814126E0F50101046
:100698001110121003E0010E146E02D01AB0FBD72D
:1006A80014500EE01A2A000E1B221C221D221DA027
:1006B80007D01D341D321C321B321A321E4A1F2A23
:1006C8001FBE0AD01F5002E11E2806E31A6A1B6AE1
:1006D800800E1C6E7F0E15D01FBE04D01F5008E17F
:1006E8001E0406E21A6A1B6A1C6A1D6A136A0AD08B
:1006F8001EC019F07F0E1C161D6A19B01C8ED890EA
:1007080019301D6E13501D121AC007F01BC008F0D7
:100718001CC009F01DC00AF012000001D66FD06B92
:10072800D16BD26BD36BD6C0CBF0040ECB27CB47A3
:10073800CB47C250CB19C30BCB19C26ED651020D91
:10074800F350E20FD96EDA6ADECF86F0DDCF87F09C
:10075800D651040DF350600FD96EDA6ADECF80F0FF
:10076800DECF81F0DECF82F0DECF83F0D46BD56BA5
:1007780086C088F087C089F064EC08F007C086F06E
:1007880008C087F000018851865D846F89518759B8
:10079800856F84C0CBF085C0CCF0000ECCBFFF0EB7
:1007A800CD6FCE6FCDC0CEF0CCC0CDF0CBC0CCF0ED
:1007B800CB6BCBC078F0CCC079F0CDC07AF0CEC08E
:1007C8007BF0805178278151792382517A23835194
:1007D8007B2379C0CBF07AC0CCF07BC0CDF0CE6B58
:1007E800CDBFCE69CB51785D806FCC517959816F7F
:1007F800CD517A59826FCE517B59836F020ECB6FE0
:1008080080C0CCF081C0CDF082C0CEF083C0CFF0E4
:10081800CB6701D007D0CF35CF33CE33CD33CC33F0
:10082800CB2FF6D7CCC07CF0CDC07DF0CEC07EF00B
:10083800CFC07FF000017C517C03F3CFCBF0F4CF25
:10084800CCF0CD6BCE6B7D03F350CC27F450CD2389
:10085800000ECE237D517C03F350CC27F450CD23DA
:10086800000ECE237C517E03F350CD27F450CE23C7
:100878007D517D03F350CD27F450CE237E517C0368
:10088800F350CD27F450CE237F517C03F350CE276D
:100898007D517E03F350CE277E517D03F350CE2742
:1008A8007F517C03F350CE27CBC074F0CCC075F0D9
:1008B800CDC076F0CEC077F00C0ECB6F773577339E
:1008C800763375337433CB2FF9D77451D0277551DC
:1008D800D1237651D2237751D323D44BD52B080E6D
:1008E800D55D01E245D7D651020DF350E20FD96E1E
:1008F800DA6A86C0DEFF87C0DDFFD651040DF350EB
:10090800600FD96EDA6A80C0DEFF81C0DEFF82C068
:10091800DEFF83C0DEFFD0C007F0D1C008F0D2C030
:1009280009F0D3C00AF0010E91EC06F007C015F0EB
:1009380008C016F009C017F00AC018F0196A1A6A38
:100948001B6A450E1C6EBCEC04F015C02EF016C0D8
:100958002FF017C030F018C031F0B1EC05F02EC000
:100968004BF02FC04CF030C04DF031C04EF01200AB
:100978001850800B256E185018242C6E17BE2C802A
:100988002C5008E02C2804E1156A166A176A186AC0
:10099800178E03D0156A166A176A186A1C50800BDE
:1009A800251A1C501C242D6E1BBE2D802D5008E0CE
:1009B8002D2804E1196A1A6A1B6A1C6A1B8E03D067
:1009C800196A1A6A1B6A1C6A19501A101B101C1023
:1009D80013E1156A166A176A186A800E17127F0ED5
:1009E80018122550181215C015F016C016F017C0A9
:1009F80017F018C018F012002C5005E1156A166A95
:100A0800176A186A12002D502CC01DF01E6A1D5E50
:100A1800000E1E5A7F0E1D24266E000E1E20276E05
:100A280015C021F016C022F017C023F018C024F01A
:100A3800156A166A176A186A286A296A2A6A2B6A5E
:100A48002D6A26D02D5011E0D89021362236233633
:100A58002436D89015361636173618362BBE15801C
:100A6800D890283629362A362B361950215C1A5048
:100A780022581B5023581C50245809E32B8C19501A
:100A8800215E1A50225A1B50235A1C50245A2D2AD0
:100A9800190E2D64D7D7215022102310241011E0ED
:100AA80028800FD0D89015361636173618362BBE34
:100AB8001580D890283629362A362B362606D8A00F
:100AC800270617AEEFD72D6A2BAE13D028501D6E10
:100AD80029501E6E2A501F6E7F0E2B14206E1D503B
:100AE8001E101F10201003E0010E2D6E02D015B04D
:100AF800FBD72D500EE0152A000E162217221822B9
:100B080018A007D018341832173216321532264A70
:100B1800272A27BE0AD0275002E1262806E3276A9B
:100B28002668156A166A176A186A27BE04D02750FD
:100B380009E1260407E2266A276A156A166A176A0F
:100B4800186A256A26C02CF02CA002D0178E01D076
:100B5800179ED8902C30186E44D73150800B366EC3
:100B680031503124406E30BE408040C041F0426A6E
:100B78002E50436E2F50446E7F0E3014456E466AD9
:100B88004150421004E0458E4128421004E1436A76
:100B9800446A456A466A4150421005E12E6A2F6A46
:100BA800306A316A1200365012E0476A486A400ECD
:100BB800496E4A6A800E4912FF0E4A1247C02EF04B
:100BC80048C02FF049C030F04AC031F01200412827
:100BD800421007E1476A486A800E496E7F0E4A6EE6
:100BE800EDD7810E4126FF0E42224150010B406E87
:100BF8004234423241327F0E4126000E4222D890C2
:100C08004334386E4434396E45343A6E46343B6E5C
:100C1800436A446A456A466A000E3C6E3D6E3E6E03
:100C2800010E3F6E405005E0D890383639363A36D6
:100C38003B36376A3DD03C5043123D5044123E503B
:100C480045123F5046124350385C4450395845507D
:100C58003A5846503B5811E34350385E4450395A8D
:100C680045503A5A46503B5A3C5043263D50442240
:100C78003E5045223F50462210D03C1C326E3D1C4F
:100C8800336E3E1C346E3F1C356E32504316335063
:100C980044163450451635504616D8903F323E32E9
:100CA8003D323C32D890383639363A363B36372AD8
:100CB800180E3764C0D7D890463245324432433292
:100CC800010E43143C6E3D6A3E6A3F6AD890463234
:100CD8004532443243323C5043263D5044223E5034
:100CE80045223F50462246A007D0D890463245328A
:100CF80044324332414A422A4350476E4450486E78
:100D08007F0E4514496E4A6A41C040F040B0498E92
:100D1800D89040304A6E4A9E51D70F6E0F501CE053
:100D28000AAE1AD007C00BF008C00CF009C00DF0CD
:100D38000AC00EF00B1E0C1E0D1E0E1E0B2A000EF6
:100D48000C220D220E220BC011F00CC012F00DC0A7
:100D580013F00EC014F008D007C011F008C012F04C
:100D680009C013F00AC014F00750081009100A103F
:100D780005E1076A086A096A0A6A1200960E106E87
:100D880006D0102AD89014321332123211320B6A5C
:100D98000C6A0D6AFE0E14140E6E0B500C100D101A
:100DA8000E100CE0EED7102A112A000E1222132280
:100DB8001422D89014321332123211320B6A0C6A90
:100DC8000D6A14500E6E0B500C100D100E1007E02B
:100DD800EAD71006D890113612361336143613BED9
:100DE80003D0020E1060F5D710A0139ED8901032D1
:100DF80010C00BF00C6A0D6A0E6A0BC00EF00D6A7B
:100E08000C6A0B6A0B5011120C5012120D5013126F
:100E18000E5014120F5002E00ABE148E11C007F0D3
:100E280012C008F013C009F014C00AF012000B6ACF
:100E38005350FEE18B8A4FC06CF050C06DF051C02A
:100E48006EF052C06FF0095041E09D9A0A0EAF6EE5
:100E58001A0EB06E9D8A7E0E0101006F0B2A29D0F2
:100E68000750D96EDA6ADF500A6E072A110E0A187F
:100E78000CE0120E0A1809E0130E0A1806E07E0E9E
:100E88000A1803E07D0E0A180BE1200E0A1A000E5C
:100E98000B24D96EDA6A010EDA227D0EDF6E0B2A78
:100EA800000E0B24D96EDA6A010EDA220AC0DFFFBF
:100EB800D5D708060828D4E1000E0B24D96EDA6AC3
:100EC800010EDA227E0EDF6E0B2A17D09D9A400E95
:100ED800AF6E030EB06E9D8A0DD00750D96EDA6AD8
:100EE800000E0B24E16EE26A010EE222DFCFE7FF7B
:100EF800072A0B2A08060828F0E10BC08AF08A8C1A
:100F080000F000F000F0010E546E9D88010C0F688F
:100F1800106829D00750D96EDA6ADF500B6E0C6A58
:100F28000D6A0E6A0F500B18096E09A00CD0D890E4
:100F380010300A6E0F30096E080E09180F6E840EF5
:100F48000A18106E03D0D89010320F32D8900C3295
:100F58000B320D4A0E2A0EBEE5D70E5003E1080EDD
:100F68000D5CE0E3072A08060828D4E10F1E101ECE
:100F78000FC007F010C008F0FF0C116812680D6A66
:100F88000E6A20D00D500724D96E0E500820DA6E54
:100F9800DF50111A106A080E0F6E11A008D0D890F1
:100FA80012321132010E111AA00E121A03D0D89063
:100FB800123211320F06D8A010060F501010EDE1B2
:100FC8000D4A0E2A09500A6E0B6A0A500D5C0E5023
:100FD800800A0C6E0B50800A0C58D4E311C007F03D
:100FE80012C008F01200D80EF66E100EF76E000E42
:100FF800F86E00EEE2F010EE07F00900F5CFEEFF14
:10100800E550E150FAE101EE00F0960EEE6AE806CE
:10101800FDE100EE60F06B0EEE6AE806FDE100EE21
:101028004FF0070EEE6AE806FDE156905692000171
:1010380086EF00F0E00ED36E806A896AF00E7E6E4D
:101048007F6A926A826A0F0E946E816A936A400E72
:10105800AF6E030EB06E080EB86E240EAC6E900E16
:10106800AB6E010EC26EC16A820EC06E7C0ECB6E74
:101078001E0ECA6E9D8A9D82F28CF28E1E0C09C0CD
:1010880010F00AC011F007C00EF008C00FF010D021
:1010980010C0D9FF11C0DAFFDF500D6E104A112AB7
:1010A8000EC0D9FF0FC0DAFF0DC0DFFF0E4A0F2AAE
:1010B8000B06D8A00C060B28EBE10C28E9E112007E
:1010C800C282C2B2FED7C3CF07F0C4CF08F0120065
:0710D800000200020002010A
:020000040020DA
:08000000FFFFFFFFFFFFFFFF00
:020000040030CA
:0E000000FF380016FF0081FF03C003E003403D
:00000001FF
